{
  "_format": "hh-sol-artifact-1",
  "contractName": "Funding",
  "sourceName": "contracts/Funding.sol",
  "abi": [
    {
      "inputs": [
        {
          "internalType": "address",
          "name": "raiseToken_",
          "type": "address"
        }
      ],
      "stateMutability": "nonpayable",
      "type": "constructor"
    },
    {
      "anonymous": false,
      "inputs": [
        {
          "indexed": true,
          "internalType": "address",
          "name": "funder",
          "type": "address"
        },
        {
          "indexed": true,
          "internalType": "uint256",
          "name": "projectID",
          "type": "uint256"
        },
        {
          "indexed": false,
          "internalType": "uint256",
          "name": "amount",
          "type": "uint256"
        }
      ],
      "name": "Contributed",
      "type": "event"
    },
    {
      "anonymous": false,
      "inputs": [
        {
          "indexed": true,
          "internalType": "address",
          "name": "funder",
          "type": "address"
        },
        {
          "indexed": true,
          "internalType": "uint256",
          "name": "projectID",
          "type": "uint256"
        },
        {
          "indexed": false,
          "internalType": "uint256",
          "name": "amount",
          "type": "uint256"
        }
      ],
      "name": "ReduceContribution",
      "type": "event"
    },
    {
      "inputs": [
        {
          "internalType": "uint256",
          "name": "projectId",
          "type": "uint256"
        }
      ],
      "name": "claimEquity",
      "outputs": [],
      "stateMutability": "nonpayable",
      "type": "function"
    },
    {
      "inputs": [
        {
          "internalType": "uint256",
          "name": "",
          "type": "uint256"
        },
        {
          "internalType": "address",
          "name": "",
          "type": "address"
        }
      ],
      "name": "claimedEquity",
      "outputs": [
        {
          "internalType": "bool",
          "name": "",
          "type": "bool"
        }
      ],
      "stateMutability": "view",
      "type": "function"
    },
    {
      "inputs": [
        {
          "internalType": "uint256",
          "name": "projectId",
          "type": "uint256"
        },
        {
          "internalType": "uint256",
          "name": "amount",
          "type": "uint256"
        }
      ],
      "name": "contribute",
      "outputs": [],
      "stateMutability": "nonpayable",
      "type": "function"
    },
    {
      "inputs": [
        {
          "internalType": "uint256",
          "name": "",
          "type": "uint256"
        },
        {
          "internalType": "address",
          "name": "",
          "type": "address"
        }
      ],
      "name": "contributions",
      "outputs": [
        {
          "internalType": "uint256",
          "name": "",
          "type": "uint256"
        }
      ],
      "stateMutability": "view",
      "type": "function"
    },
    {
      "inputs": [
        {
          "internalType": "string",
          "name": "title_",
          "type": "string"
        },
        {
          "internalType": "string",
          "name": "description_",
          "type": "string"
        },
        {
          "internalType": "uint256",
          "name": "targetRaiseAmount_",
          "type": "uint256"
        },
        {
          "internalType": "address",
          "name": "equityToken_",
          "type": "address"
        },
        {
          "internalType": "uint256",
          "name": "equityAmount_",
          "type": "uint256"
        },
        {
          "internalType": "uint256",
          "name": "startTime",
          "type": "uint256"
        },
        {
          "internalType": "uint256",
          "name": "endTime",
          "type": "uint256"
        }
      ],
      "name": "createProject",
      "outputs": [],
      "stateMutability": "nonpayable",
      "type": "function"
    },
    {
      "inputs": [],
      "name": "lastProjectId",
      "outputs": [
        {
          "internalType": "uint256",
          "name": "",
          "type": "uint256"
        }
      ],
      "stateMutability": "view",
      "type": "function"
    },
    {
      "inputs": [
        {
          "internalType": "uint256",
          "name": "",
          "type": "uint256"
        }
      ],
      "name": "projects",
      "outputs": [
        {
          "internalType": "uint256",
          "name": "id",
          "type": "uint256"
        },
        {
          "internalType": "address",
          "name": "creator",
          "type": "address"
        },
        {
          "internalType": "string",
          "name": "title",
          "type": "string"
        },
        {
          "internalType": "string",
          "name": "description",
          "type": "string"
        },
        {
          "internalType": "uint256",
          "name": "targetRaiseAmount",
          "type": "uint256"
        },
        {
          "internalType": "address",
          "name": "equityToken",
          "type": "address"
        },
        {
          "internalType": "uint256",
          "name": "equityAmount",
          "type": "uint256"
        },
        {
          "internalType": "uint256",
          "name": "currentRaiseAmount",
          "type": "uint256"
        },
        {
          "internalType": "uint256",
          "name": "startTime",
          "type": "uint256"
        },
        {
          "internalType": "uint256",
          "name": "endTime",
          "type": "uint256"
        },
        {
          "internalType": "uint256",
          "name": "noOfFunders",
          "type": "uint256"
        }
      ],
      "stateMutability": "view",
      "type": "function"
    },
    {
      "inputs": [],
      "name": "raiseToken",
      "outputs": [
        {
          "internalType": "contract IERC20",
          "name": "",
          "type": "address"
        }
      ],
      "stateMutability": "view",
      "type": "function"
    },
    {
      "inputs": [
        {
          "internalType": "uint256",
          "name": "projectId",
          "type": "uint256"
        },
        {
          "internalType": "uint256",
          "name": "amount",
          "type": "uint256"
        }
      ],
      "name": "reduceContribution",
      "outputs": [],
      "stateMutability": "nonpayable",
      "type": "function"
    },
    {
      "inputs": [
        {
          "internalType": "uint256",
          "name": "projectId",
          "type": "uint256"
        }
      ],
      "name": "withdrawFunds",
      "outputs": [],
      "stateMutability": "nonpayable",
      "type": "function"
    },
    {
      "inputs": [
        {
          "internalType": "uint256",
          "name": "projectId",
          "type": "uint256"
        }
      ],
      "name": "withdrawRemainingEquity",
      "outputs": [],
      "stateMutability": "nonpayable",
      "type": "function"
    }
  ],
  "bytecode": "0x60a06040523480156200001157600080fd5b506040516200320e3803806200320e8339818101604052810190620000379190620000e4565b8073ffffffffffffffffffffffffffffffffffffffff1660808173ffffffffffffffffffffffffffffffffffffffff168152505060006003819055505062000116565b600080fd5b600073ffffffffffffffffffffffffffffffffffffffff82169050919050565b6000620000ac826200007f565b9050919050565b620000be816200009f565b8114620000ca57600080fd5b50565b600081519050620000de81620000b3565b92915050565b600060208284031215620000fd57620000fc6200007a565b5b60006200010d84828501620000cd565b91505092915050565b6080516130c76200014760003960008181610583015281816108de01528181610b370152610dfa01526130c76000f3fe608060405234801561001057600080fd5b50600436106100a95760003560e01c80634da60aa5116100715780634da60aa51461016e5780638c5909171461018c578063b07fdbc3146101a8578063b9d98a7c146101c4578063e1bb9f69146101e0578063e5f6e66014610210576100a9565b80630e964465146100ae578063107046bd146100cc578063155dd5ee146101065780632d34f649146101225780633d891f591461013e575b600080fd5b6100b661022c565b6040516100c3919061196c565b60405180910390f35b6100e660048036038101906100e191906119c7565b610232565b6040516100fd9b9a99989796959493929190611ac5565b60405180910390f35b610120600480360381019061011b91906119c7565b6103ec565b005b61013c600480360381019061013791906119c7565b6105cb565b005b61015860048036038101906101539190611baa565b6108b7565b604051610165919061196c565b60405180910390f35b6101766108dc565b6040516101839190611c49565b60405180910390f35b6101a660048036038101906101a19190611c64565b610900565b005b6101c260048036038101906101bd9190611c64565b610bd0565b005b6101de60048036038101906101d991906119c7565b610e92565b005b6101fa60048036038101906101f59190611baa565b6110ab565b6040516102079190611cbf565b60405180910390f35b61022a60048036038101906102259190611e0f565b6110da565b005b60035481565b6002818154811061024257600080fd5b90600052602060002090600b02016000915090508060000154908060010160009054906101000a900473ffffffffffffffffffffffffffffffffffffffff169080600201805461029190611f18565b80601f01602080910402602001604051908101604052809291908181526020018280546102bd90611f18565b801561030a5780601f106102df5761010080835404028352916020019161030a565b820191906000526020600020905b8154815290600101906020018083116102ed57829003601f168201915b50505050509080600301805461031f90611f18565b80601f016020809104026020016040519081016040528092919081815260200182805461034b90611f18565b80156103985780601f1061036d57610100808354040283529160200191610398565b820191906000526020600020905b81548152906001019060200180831161037b57829003601f168201915b5050505050908060040154908060050160009054906101000a900473ffffffffffffffffffffffffffffffffffffffff169080600601549080600701549080600801549080600901549080600a015490508b565b6002805490508110610433576040517f08c379a000000000000000000000000000000000000000000000000000000000815260040161042a90611f95565b60405180910390fd5b60006002828154811061044957610448611fb5565b5b90600052602060002090600b020190504281600901541061049f576040517f08c379a000000000000000000000000000000000000000000000000000000000815260040161049690612030565b60405180910390fd5b8060010160009054906101000a900473ffffffffffffffffffffffffffffffffffffffff1673ffffffffffffffffffffffffffffffffffffffff163373ffffffffffffffffffffffffffffffffffffffff1614610531576040517f08c379a0000000000000000000000000000000000000000000000000000000008152600401610528906120c2565b60405180910390fd5b6000816007015411610578576040517f08c379a000000000000000000000000000000000000000000000000000000000815260040161056f9061212e565b60405180910390fd5b6105c73382600701547f000000000000000000000000000000000000000000000000000000000000000073ffffffffffffffffffffffffffffffffffffffff1661152a9092919063ffffffff16565b5050565b6002805490508110610612576040517f08c379a000000000000000000000000000000000000000000000000000000000815260040161060990611f95565b60405180910390fd5b60006002828154811061062857610627611fb5565b5b90600052602060002090600b020190504281600901541061067e576040517f08c379a0000000000000000000000000000000000000000000000000000000008152600401610675906121c0565b60405180910390fd5b600080600084815260200190815260200160002060003373ffffffffffffffffffffffffffffffffffffffff1673ffffffffffffffffffffffffffffffffffffffff16815260200190815260200160002054905060008111610715576040517f08c379a000000000000000000000000000000000000000000000000000000000815260040161070c90612252565b60405180910390fd5b6001600084815260200190815260200160002060003373ffffffffffffffffffffffffffffffffffffffff1673ffffffffffffffffffffffffffffffffffffffff16815260200190815260200160002060009054906101000a900460ff16156107b3576040517f08c379a00000000000000000000000000000000000000000000000000000000081526004016107aa906122be565b60405180910390fd5b60008260040154836007015484600601546107ce919061230d565b6107d8919061237e565b90506000836007015482846107ed919061230d565b6107f7919061237e565b9050600180600087815260200190815260200160002060003373ffffffffffffffffffffffffffffffffffffffff1673ffffffffffffffffffffffffffffffffffffffff16815260200190815260200160002060006101000a81548160ff0219169083151502179055506108b033828660050160009054906101000a900473ffffffffffffffffffffffffffffffffffffffff1673ffffffffffffffffffffffffffffffffffffffff1661152a9092919063ffffffff16565b5050505050565b6000602052816000526040600020602052806000526040600020600091509150505481565b7f000000000000000000000000000000000000000000000000000000000000000081565b6002805490508210610947576040517f08c379a000000000000000000000000000000000000000000000000000000000815260040161093e90611f95565b60405180910390fd5b6000811161098a576040517f08c379a0000000000000000000000000000000000000000000000000000000008152600401610981906123fb565b60405180910390fd5b6000600283815481106109a05761099f611fb5565b5b90600052602060002090600b0201905080600401548282600701546109c5919061241b565b1115610a06576040517f08c379a00000000000000000000000000000000000000000000000000000000081526004016109fd906124c1565b60405180910390fd5b4281600801541115610a4d576040517f08c379a0000000000000000000000000000000000000000000000000000000008152600401610a4490612553565b60405180910390fd5b8060090154421115610a94576040517f08c379a0000000000000000000000000000000000000000000000000000000008152600401610a8b906125bf565b60405180910390fd5b81816007016000828254610aa8919061241b565b9250508190555080600a016000815480929190610ac4906125df565b91905055508160008085815260200190815260200160002060003373ffffffffffffffffffffffffffffffffffffffff1673ffffffffffffffffffffffffffffffffffffffff1681526020019081526020016000206000828254610b28919061241b565b92505081905550610b7c3330847f000000000000000000000000000000000000000000000000000000000000000073ffffffffffffffffffffffffffffffffffffffff166115b0909392919063ffffffff16565b823373ffffffffffffffffffffffffffffffffffffffff167ffa35a310d7113dddce1c275da946348e9aaebf9050b00b372033c4d84b0bd6eb84604051610bc3919061196c565b60405180910390a3505050565b6002805490508210610c17576040517f08c379a0000000000000000000000000000000000000000000000000000000008152600401610c0e90611f95565b60405180910390fd5b60008111610c5a576040517f08c379a0000000000000000000000000000000000000000000000000000000008152600401610c51906123fb565b60405180910390fd5b600060028381548110610c7057610c6f611fb5565b5b90600052602060002090600b020190508160008085815260200190815260200160002060003373ffffffffffffffffffffffffffffffffffffffff1673ffffffffffffffffffffffffffffffffffffffff168152602001908152602001600020541015610d12576040517f08c379a0000000000000000000000000000000000000000000000000000000008152600401610d0990612699565b60405180910390fd5b80600901544210610d58576040517f08c379a0000000000000000000000000000000000000000000000000000000008152600401610d4f9061272b565b60405180910390fd5b81816007016000828254610d6c919061274b565b9250508190555080600a016000815480929190610d889061277f565b91905055508160008085815260200190815260200160002060003373ffffffffffffffffffffffffffffffffffffffff1673ffffffffffffffffffffffffffffffffffffffff1681526020019081526020016000206000828254610dec919061274b565b92505081905550610e3e33837f000000000000000000000000000000000000000000000000000000000000000073ffffffffffffffffffffffffffffffffffffffff1661152a9092919063ffffffff16565b823373ffffffffffffffffffffffffffffffffffffffff167f8f32800d093dfc69cee2deaa1a9c6877c9c1ee2f3d97ad76a14e44494d17ea3784604051610e85919061196c565b60405180910390a3505050565b6002805490508110610ed9576040517f08c379a0000000000000000000000000000000000000000000000000000000008152600401610ed090611f95565b60405180910390fd5b600060028281548110610eef57610eee611fb5565b5b90600052602060002090600b0201905042816009015410610f45576040517f08c379a0000000000000000000000000000000000000000000000000000000008152600401610f3c90612030565b60405180910390fd5b8060010160009054906101000a900473ffffffffffffffffffffffffffffffffffffffff1673ffffffffffffffffffffffffffffffffffffffff163373ffffffffffffffffffffffffffffffffffffffff1614610fd7576040517f08c379a0000000000000000000000000000000000000000000000000000000008152600401610fce906120c2565b60405180910390fd5b8060040154816007015410611021576040517f08c379a00000000000000000000000000000000000000000000000000000000081526004016110189061281a565b60405180910390fd5b600081600401548260070154836006015461103c919061230d565b611046919061237e565b90506110a63382846006015461105c919061274b565b8460050160009054906101000a900473ffffffffffffffffffffffffffffffffffffffff1673ffffffffffffffffffffffffffffffffffffffff1661152a9092919063ffffffff16565b505050565b60016020528160005260406000206020528060005260406000206000915091509054906101000a900460ff1681565b600087511161111e576040517f08c379a000000000000000000000000000000000000000000000000000000000815260040161111590612886565b60405180910390fd5b6000865111611162576040517f08c379a0000000000000000000000000000000000000000000000000000000008152600401611159906128f2565b60405180910390fd5b600085116111a5576040517f08c379a000000000000000000000000000000000000000000000000000000000815260040161119c9061295e565b60405180910390fd5b600073ffffffffffffffffffffffffffffffffffffffff168473ffffffffffffffffffffffffffffffffffffffff1603611214576040517f08c379a000000000000000000000000000000000000000000000000000000000815260040161120b906129ca565b60405180910390fd5b60008311611257576040517f08c379a000000000000000000000000000000000000000000000000000000000815260040161124e90612a36565b60405180910390fd5b814210611299576040517f08c379a000000000000000000000000000000000000000000000000000000000815260040161129090612aa2565b60405180910390fd5b8082106112db576040517f08c379a00000000000000000000000000000000000000000000000000000000081526004016112d290612b34565b60405180910390fd5b6112e36118cd565b60028054905081600001818152505033816020019073ffffffffffffffffffffffffffffffffffffffff16908173ffffffffffffffffffffffffffffffffffffffff168152505087816040018190525086816060018190525085816080018181525050848160a0019073ffffffffffffffffffffffffffffffffffffffff16908173ffffffffffffffffffffffffffffffffffffffff1681525050838160c00181815250508281610100018181525050818161012001818152505060008161014001818152505060028190806001815401808255809150506001900390600052602060002090600b02016000909190919091506000820151816000015560208201518160010160006101000a81548173ffffffffffffffffffffffffffffffffffffffff021916908373ffffffffffffffffffffffffffffffffffffffff160217905550604082015181600201908161143c9190612cf6565b5060608201518160030190816114529190612cf6565b506080820151816004015560a08201518160050160006101000a81548173ffffffffffffffffffffffffffffffffffffffff021916908373ffffffffffffffffffffffffffffffffffffffff16021790555060c0820151816006015560e082015181600701556101008201518160080155610120820151816009015561014082015181600a01555050600360008154809291906114ee906125df565b91905055506115203330868873ffffffffffffffffffffffffffffffffffffffff166115b0909392919063ffffffff16565b5050505050505050565b6115ab8363a9059cbb60e01b8484604051602401611549929190612dc8565b604051602081830303815290604052907bffffffffffffffffffffffffffffffffffffffffffffffffffffffff19166020820180517bffffffffffffffffffffffffffffffffffffffffffffffffffffffff8381831617835250505050611639565b505050565b611633846323b872dd60e01b8585856040516024016115d193929190612df1565b604051602081830303815290604052907bffffffffffffffffffffffffffffffffffffffffffffffffffffffff19166020820180517bffffffffffffffffffffffffffffffffffffffffffffffffffffffff8381831617835250505050611639565b50505050565b600061169b826040518060400160405280602081526020017f5361666545524332303a206c6f772d6c6576656c2063616c6c206661696c65648152508573ffffffffffffffffffffffffffffffffffffffff166117009092919063ffffffff16565b90506000815111156116fb57808060200190518101906116bb9190612e54565b6116fa576040517f08c379a00000000000000000000000000000000000000000000000000000000081526004016116f190612ef3565b60405180910390fd5b5b505050565b606061170f8484600085611718565b90509392505050565b60608247101561175d576040517f08c379a000000000000000000000000000000000000000000000000000000000815260040161175490612f85565b60405180910390fd5b6000808673ffffffffffffffffffffffffffffffffffffffff1685876040516117869190612fec565b60006040518083038185875af1925050503d80600081146117c3576040519150601f19603f3d011682016040523d82523d6000602084013e6117c8565b606091505b50915091506117d9878383876117e5565b92505050949350505050565b6060831561184757600083510361183f576117ff8561185a565b61183e576040517f08c379a00000000000000000000000000000000000000000000000000000000081526004016118359061304f565b60405180910390fd5b5b829050611852565b611851838361187d565b5b949350505050565b6000808273ffffffffffffffffffffffffffffffffffffffff163b119050919050565b6000825111156118905781518083602001fd5b806040517f08c379a00000000000000000000000000000000000000000000000000000000081526004016118c4919061306f565b60405180910390fd5b60405180610160016040528060008152602001600073ffffffffffffffffffffffffffffffffffffffff168152602001606081526020016060815260200160008152602001600073ffffffffffffffffffffffffffffffffffffffff16815260200160008152602001600081526020016000815260200160008152602001600081525090565b6000819050919050565b61196681611953565b82525050565b6000602082019050611981600083018461195d565b92915050565b6000604051905090565b600080fd5b600080fd5b6119a481611953565b81146119af57600080fd5b50565b6000813590506119c18161199b565b92915050565b6000602082840312156119dd576119dc611991565b5b60006119eb848285016119b2565b91505092915050565b600073ffffffffffffffffffffffffffffffffffffffff82169050919050565b6000611a1f826119f4565b9050919050565b611a2f81611a14565b82525050565b600081519050919050565b600082825260208201905092915050565b60005b83811015611a6f578082015181840152602081019050611a54565b60008484015250505050565b6000601f19601f8301169050919050565b6000611a9782611a35565b611aa18185611a40565b9350611ab1818560208601611a51565b611aba81611a7b565b840191505092915050565b600061016082019050611adb600083018e61195d565b611ae8602083018d611a26565b8181036040830152611afa818c611a8c565b90508181036060830152611b0e818b611a8c565b9050611b1d608083018a61195d565b611b2a60a0830189611a26565b611b3760c083018861195d565b611b4460e083018761195d565b611b5261010083018661195d565b611b6061012083018561195d565b611b6e61014083018461195d565b9c9b505050505050505050505050565b611b8781611a14565b8114611b9257600080fd5b50565b600081359050611ba481611b7e565b92915050565b60008060408385031215611bc157611bc0611991565b5b6000611bcf858286016119b2565b9250506020611be085828601611b95565b9150509250929050565b6000819050919050565b6000611c0f611c0a611c05846119f4565b611bea565b6119f4565b9050919050565b6000611c2182611bf4565b9050919050565b6000611c3382611c16565b9050919050565b611c4381611c28565b82525050565b6000602082019050611c5e6000830184611c3a565b92915050565b60008060408385031215611c7b57611c7a611991565b5b6000611c89858286016119b2565b9250506020611c9a858286016119b2565b9150509250929050565b60008115159050919050565b611cb981611ca4565b82525050565b6000602082019050611cd46000830184611cb0565b92915050565b600080fd5b600080fd5b7f4e487b7100000000000000000000000000000000000000000000000000000000600052604160045260246000fd5b611d1c82611a7b565b810181811067ffffffffffffffff82111715611d3b57611d3a611ce4565b5b80604052505050565b6000611d4e611987565b9050611d5a8282611d13565b919050565b600067ffffffffffffffff821115611d7a57611d79611ce4565b5b611d8382611a7b565b9050602081019050919050565b82818337600083830152505050565b6000611db2611dad84611d5f565b611d44565b905082815260208101848484011115611dce57611dcd611cdf565b5b611dd9848285611d90565b509392505050565b600082601f830112611df657611df5611cda565b5b8135611e06848260208601611d9f565b91505092915050565b600080600080600080600060e0888a031215611e2e57611e2d611991565b5b600088013567ffffffffffffffff811115611e4c57611e4b611996565b5b611e588a828b01611de1565b975050602088013567ffffffffffffffff811115611e7957611e78611996565b5b611e858a828b01611de1565b9650506040611e968a828b016119b2565b9550506060611ea78a828b01611b95565b9450506080611eb88a828b016119b2565b93505060a0611ec98a828b016119b2565b92505060c0611eda8a828b016119b2565b91505092959891949750929550565b7f4e487b7100000000000000000000000000000000000000000000000000000000600052602260045260246000fd5b60006002820490506001821680611f3057607f821691505b602082108103611f4357611f42611ee9565b5b50919050565b7f50726f6a65637420646f6573206e6f7420657869737400000000000000000000600082015250565b6000611f7f601683611a40565b9150611f8a82611f49565b602082019050919050565b60006020820190508181036000830152611fae81611f72565b9050919050565b7f4e487b7100000000000000000000000000000000000000000000000000000000600052603260045260246000fd5b7f43616e6e6f74207769746864726177206265666f726520656e642074696d6500600082015250565b600061201a601f83611a40565b915061202582611fe4565b602082019050919050565b600060208201905081810360008301526120498161200d565b9050919050565b7f4f6e6c79207468652063726561746f722063616e20776974686472617720726560008201527f6d61696e696e6720657175697479000000000000000000000000000000000000602082015250565b60006120ac602e83611a40565b91506120b782612050565b604082019050919050565b600060208201905081810360008301526120db8161209f565b9050919050565b7f4e6f2066756e647320746f207769746864726177000000000000000000000000600082015250565b6000612118601483611a40565b9150612123826120e2565b602082019050919050565b600060208201905081810360008301526121478161210b565b9050919050565b7f43616e6e6f7420636c61696d20657175697479206265666f726520656e64207460008201527f696d650000000000000000000000000000000000000000000000000000000000602082015250565b60006121aa602383611a40565b91506121b58261214e565b604082019050919050565b600060208201905081810360008301526121d98161219d565b9050919050565b7f4e6f20636f6e747269627574696f6e20746f20636c61696d206571756974792060008201527f666f720000000000000000000000000000000000000000000000000000000000602082015250565b600061223c602383611a40565b9150612247826121e0565b604082019050919050565b6000602082019050818103600083015261226b8161222f565b9050919050565b7f45717569747920616c726561647920636c61696d656400000000000000000000600082015250565b60006122a8601683611a40565b91506122b382612272565b602082019050919050565b600060208201905081810360008301526122d78161229b565b9050919050565b7f4e487b7100000000000000000000000000000000000000000000000000000000600052601160045260246000fd5b600061231882611953565b915061232383611953565b925082820261233181611953565b91508282048414831517612348576123476122de565b5b5092915050565b7f4e487b7100000000000000000000000000000000000000000000000000000000600052601260045260246000fd5b600061238982611953565b915061239483611953565b9250826123a4576123a361234f565b5b828204905092915050565b7f416d6f756e742069732072657175697265640000000000000000000000000000600082015250565b60006123e5601283611a40565b91506123f0826123af565b602082019050919050565b60006020820190508181036000830152612414816123d8565b9050919050565b600061242682611953565b915061243183611953565b9250828201905080821115612449576124486122de565b5b92915050565b7f416d6f756e7420657863656564732074617267657420726169736520616d6f7560008201527f6e74000000000000000000000000000000000000000000000000000000000000602082015250565b60006124ab602283611a40565b91506124b68261244f565b604082019050919050565b600060208201905081810360008301526124da8161249e565b9050919050565b7f43616e6e6f7420636f6e74726962757465206265666f7265207374617274207460008201527f696d650000000000000000000000000000000000000000000000000000000000602082015250565b600061253d602383611a40565b9150612548826124e1565b604082019050919050565b6000602082019050818103600083015261256c81612530565b9050919050565b7f43616e6e6f7420636f6e7472696275746520616674657220656e642074696d65600082015250565b60006125a9602083611a40565b91506125b482612573565b602082019050919050565b600060208201905081810360008301526125d88161259c565b9050919050565b60006125ea82611953565b91507fffffffffffffffffffffffffffffffffffffffffffffffffffffffffffffffff820361261c5761261b6122de565b5b600182019050919050565b7f416d6f756e74206578636565647320636f6e747269627574696f6e20616d6f7560008201527f6e74000000000000000000000000000000000000000000000000000000000000602082015250565b6000612683602283611a40565b915061268e82612627565b604082019050919050565b600060208201905081810360008301526126b281612676565b9050919050565b7f43616e6e6f742072656475636520636f6e747269627574696f6e20616674657260008201527f20656e642074696d650000000000000000000000000000000000000000000000602082015250565b6000612715602983611a40565b9150612720826126b9565b604082019050919050565b6000602082019050818103600083015261274481612708565b9050919050565b600061275682611953565b915061276183611953565b9250828203905081811115612779576127786122de565b5b92915050565b600061278a82611953565b91506000820361279d5761279c6122de565b5b600182039050919050565b7f43616e6e6f74207769746864726177206966207461726765742072616973652060008201527f616d6f756e742077617320726561636865640000000000000000000000000000602082015250565b6000612804603283611a40565b915061280f826127a8565b604082019050919050565b60006020820190508181036000830152612833816127f7565b9050919050565b7f5469746c65206973207265717569726564000000000000000000000000000000600082015250565b6000612870601183611a40565b915061287b8261283a565b602082019050919050565b6000602082019050818103600083015261289f81612863565b9050919050565b7f4465736372697074696f6e206973207265717569726564000000000000000000600082015250565b60006128dc601783611a40565b91506128e7826128a6565b602082019050919050565b6000602082019050818103600083015261290b816128cf565b9050919050565b7f54617267657420726169736520616d6f756e7420697320726571756972656400600082015250565b6000612948601f83611a40565b915061295382612912565b602082019050919050565b600060208201905081810360008301526129778161293b565b9050919050565b7f45717569747920746f6b656e2069732072657175697265640000000000000000600082015250565b60006129b4601883611a40565b91506129bf8261297e565b602082019050919050565b600060208201905081810360008301526129e3816129a7565b9050919050565b7f45717569747920616d6f756e7420697320726571756972656400000000000000600082015250565b6000612a20601983611a40565b9150612a2b826129ea565b602082019050919050565b60006020820190508181036000830152612a4f81612a13565b9050919050565b7f53746172742074696d65206d75737420626520696e2074686520667574757265600082015250565b6000612a8c602083611a40565b9150612a9782612a56565b602082019050919050565b60006020820190508181036000830152612abb81612a7f565b9050919050565b7f53746172742074696d65206d757374206265206265666f726520656e6420746960008201527f6d65000000000000000000000000000000000000000000000000000000000000602082015250565b6000612b1e602283611a40565b9150612b2982612ac2565b604082019050919050565b60006020820190508181036000830152612b4d81612b11565b9050919050565b60008190508160005260206000209050919050565b60006020601f8301049050919050565b600082821b905092915050565b600060088302612bb67fffffffffffffffffffffffffffffffffffffffffffffffffffffffffffffffff82612b79565b612bc08683612b79565b95508019841693508086168417925050509392505050565b6000612bf3612bee612be984611953565b611bea565b611953565b9050919050565b6000819050919050565b612c0d83612bd8565b612c21612c1982612bfa565b848454612b86565b825550505050565b600090565b612c36612c29565b612c41818484612c04565b505050565b5b81811015612c6557612c5a600082612c2e565b600181019050612c47565b5050565b601f821115612caa57612c7b81612b54565b612c8484612b69565b81016020851015612c93578190505b612ca7612c9f85612b69565b830182612c46565b50505b505050565b600082821c905092915050565b6000612ccd60001984600802612caf565b1980831691505092915050565b6000612ce68383612cbc565b9150826002028217905092915050565b612cff82611a35565b67ffffffffffffffff811115612d1857612d17611ce4565b5b612d228254611f18565b612d2d828285612c69565b600060209050601f831160018114612d605760008415612d4e578287015190505b612d588582612cda565b865550612dc0565b601f198416612d6e86612b54565b60005b82811015612d9657848901518255600182019150602085019450602081019050612d71565b86831015612db35784890151612daf601f891682612cbc565b8355505b6001600288020188555050505b505050505050565b6000604082019050612ddd6000830185611a26565b612dea602083018461195d565b9392505050565b6000606082019050612e066000830186611a26565b612e136020830185611a26565b612e20604083018461195d565b949350505050565b612e3181611ca4565b8114612e3c57600080fd5b50565b600081519050612e4e81612e28565b92915050565b600060208284031215612e6a57612e69611991565b5b6000612e7884828501612e3f565b91505092915050565b7f5361666545524332303a204552433230206f7065726174696f6e20646964206e60008201527f6f74207375636365656400000000000000000000000000000000000000000000602082015250565b6000612edd602a83611a40565b9150612ee882612e81565b604082019050919050565b60006020820190508181036000830152612f0c81612ed0565b9050919050565b7f416464726573733a20696e73756666696369656e742062616c616e636520666f60008201527f722063616c6c0000000000000000000000000000000000000000000000000000602082015250565b6000612f6f602683611a40565b9150612f7a82612f13565b604082019050919050565b60006020820190508181036000830152612f9e81612f62565b9050919050565b600081519050919050565b600081905092915050565b6000612fc682612fa5565b612fd08185612fb0565b9350612fe0818560208601611a51565b80840191505092915050565b6000612ff88284612fbb565b915081905092915050565b7f416464726573733a2063616c6c20746f206e6f6e2d636f6e7472616374000000600082015250565b6000613039601d83611a40565b915061304482613003565b602082019050919050565b600060208201905081810360008301526130688161302c565b9050919050565b600060208201905081810360008301526130898184611a8c565b90509291505056fea264697066735822122043df5b5f0ca3b4abafffe74526b658ac0f3c66c74a36395be579e92b6ce71c2a64736f6c63430008130033",
  "linkReferences": {},
  "deployedLinkReferences": {}
}